:020000040800F2
:100000008045002061020008EF1C00085D1B00080D
:10001000ED1C0008B5030008B52100080000000031
:10002000000000000000000000000000A101000826
:10003000B703000800000000FD010008651D00086E
:100040007B0200087B0200087B0200087B0200089C
:100050007B0200087B0200087B0200087B0200088C
:100060007B0200087B0200087B0200087B0200087C
:100070007B0200087B0200087B0200087B0200086C
:100080007B0200087B0200087B0200087B0200085C
:100090007B0200087B0200087B0200087B0200084C
:1000A0007B0200087B0200087B0200087B0200083C
:1000B0007B0200087B0200087B0200087B0200082C
:1000C0007B0200087B0200087B0200087B0200081C
:1000D0007B0200087B0200087B0200087B0200080C
:1000E0007B0200087B0200087B0200087B020008FC
:1000F0007B0200087B0200087B0200087B020008EC
:100100007B0200087B0200087B0200087B020008DB
:100110007B0200087B0200087B020008311E0008F9
:100120007B0200087B0200087B0200087B020008BB
:100130007B0200087B0200087B0200087B020008AB
:100140007B0200087B0200087B0200087B0200089B
:100150007B0200087B0200087B020008A92100083E
:100160007B0200087B0200087B0200087B0200087B
:100170007B0200087B0200087B02000800000000F0
:100180007B0200087B020008DFF810D000F000F9C5
:1001900000480047F1240008AFF3008080450020AC
:1001A0002C4B19680868B0E8F04F80F30988BFF35A
:1001B0006F8F4FF0000080F311887047000000003F
:1001C00008480068006880F308884FF0000080F35A
:1001D000148862B661B6BFF34F8FBFF36F8F00DF35
:1001E00000BF00BF08ED00E0DFF80C00016841F43B
:1001F00070010160704700BF88ED00E0EFF30980F7
:10020000BFF36F8F134B1A681EF0100F08BF20ED5D
:10021000108A20E9F04F106009B44FF0500080F3CD
:100220001188BFF34F8FBFF36F8F02F07FFE4FF047
:10023000000080F3118809BC19680868B0E8F04F25
:100240001EF0100F08BFB0EC108A80F30988BFF3CE
:100250006F8F704720000020EFF30580704700008B
:100260000648804706480047FEE7FEE7FEE7FEE750
:10027000FEE7FEE7FEE7FEE7FEE7FEE7211E0008D9
:10028000890100082DE9F05F0546002092469B4653
:1002900088460646814640241BE02846414647469C
:1002A000224600F065F853465A46C01A914110D3D1
:1002B00011461846224600F04CF82D1A67EB01084B
:1002C0004F4622460120002100F043F817EB0009B9
:1002D0004E41201EA4F10104DFDC484631462A4687
:1002E0004346BDE8F09F40EA01039B0703D009E0C5
:1002F00008C9121F08C0042AFAD203E011F8013B12
:1003000000F8013B521EF9D27047D2B201E000F86A
:10031000012B491EFBD270470022F6E710B51346A9
:100320000A4604461946FFF7F0FF204610BD30B5D7
:1003300005462A460B4612F8010B13F8014B08B18B
:10034000A042F8D01CB1002802D06D1CF1E728466D
:1003500030BD202A04DB203A00FA02F10020704769
:100360009140C2F1200320FA03F3194390407047F3
:10037000202A04DB203A21FA02F00021704721FAFA
:1003800002F3D040C2F12002914008431946704761
:10039000064C074D06E0E06840F0010394E80700D2
:1003A00098471034AC42F6D3FFF7F2FE98330008BA
:1003B000B8330008FEE7704772B6FEE7002229B1A5
:1003C00001291AD002291BD04FF440720E490B6844
:1003D00023F440730B600B6813430B600A6822F030
:1003E000F8020A600A68022303EBC00002430A60B5
:1003F000086840F48030086070474FF48072E5E789
:100400004FF40072E2E70000103C0240134801681C
:1004100089050FD5016821F400710160016841F47C
:1004200000610160016821F400610160016841F42C
:1004300000710160016849050FD5016821F48061F0
:100440000160016841F480510160016821F480512C
:100450000160016841F4806101607047003C024026
:1004600008490A6822F440720A600A6842F00402ED
:100470000A600A684FF4803343EA002002430A60AE
:1004800070470000103C0240064A136823F4407392
:10049000136013681360136843F001031360017065
:1004A00070470000103C0240094910B50C6824F464
:1004B00040740C600C6844F440740C600C6844F0A8
:1004C00001040C600260BFF36F8F436010BD000039
:1004D000103C0240074A136823F44073136013680A
:1004E00043F480731360136843F0010313600180C9
:1004F00070470000103C0240074A136823F4407321
:100500001360136843F400731360136843F001032E
:100510001360016070470000103C024017490868F2
:10052000C206174805D5C26942F01002C261102206
:100530000A600A68920605D5C26942F00802C261E3
:1005400020220A600A68520605D5C26942F00402F8
:10055000C26140220A600A68120605D5C26942F0EB
:100560000202C26180220A600A68920705D5C26948
:1005700042F02002C2610220086070470C3C024039
:100580006C04002070B5114904460020C86100F0D9
:10059000F7FA06460E4D09E0601C07D024B100F0C2
:1005A000EFFA801BA04201D9032070BD2868C00368
:1005B000F2D42868C00701D001202860286810F014
:1005C000F200F2D0FFF7AAFF012070BD6C040020FA
:1005D0000C3C02402DE9F0410446876D00F0D0FA52
:1005E000064694F835000025022806D08020606574
:1005F00084F834500120BDE8F0812068016821F0C2
:10060000160101602068416921F080014161206C80
:1006100008B9A06C20B12068016821F008010160D0
:100620002068016821F0010101600CE000F0A8FAE7
:10063000801B052807D920206065032084F8350039
:1006400084F83450D7E720680068C007EED194F8EA
:100650005C103F208840B860012084F8350084F8A1
:1006600034500020C7E790F83510022903D08021CC
:10067000416501207047052180F835100068016848
:1006800021F00101016000207047000070B50446B0
:1006900000F076FA0546601C02D004480078044455
:1006A00000F06EFA401BA042FAD370BD100000208B
:1006B0002DE9F047044622480F46017E01290AD061
:1006C0000121804601764CF250394846FFF75AFF27
:1006D000020003D02FE00220BDE8F0874FF0FF308A
:1006E00038602068174D012801D0A6681CE0207CE6
:1006F0006168FFF7B5FE4846FFF744FF02462868E9
:1007000020F00400286014E0217C3046FFF756FEFC
:100710004846FFF737FF0200286820F0FA002860FB
:1007200001D03E6005E0761CD4E902100844B042D6
:10073000EAD8FFF76BFE002188F818101046CBE7C7
:100740006C040020103C02400348016841F0004165
:100750000160002070470000103C02402DE9F04786
:100760001B4E05461446307E1F468946012808D098
:10077000012030764CF250384046FFF703FF18B1A5
:1007800014E00220BDE8F0879DB1012D16D0022DA6
:1007900019D022463B464846FFF786FE4046FFF703
:1007A000F1FE0C490A6822F001020A60002131764C
:1007B000E8E7E1B24846FFF767FEEFE7A1B2484637
:1007C000FFF788FEEAE721464846FFF795FEE5E792
:1007D0006C040020103C0240074900200A68002AEF
:1007E00009DA054A054B0C3A1360054B136009689A
:1007F000002900DA01207047103C024023016745C0
:10080000AB89EFCD2DE9F04F0022DFF838B101269A
:100810004FF00F0906FA02F401EA0403A3427DD166
:1008200022F003075F44D7F8088895074FEA157C44
:1008300009FA0CFA0AEA0805DFF80C81404502D1F2
:100840004FF0000832E0DFF80481404502D14FF05C
:1008500001082BE0DFF8F880404502D14FF0020894
:1008600024E0DFF8F080404502D14FF003081DE09E
:10087000DFF8E480404502D14FF0040816E0DFF8CD
:10088000DC80404502D14FF005080FE0DFF8D08052
:10089000404502D14FF0060808E0DFF8C880404527
:1008A00002D14FF0070801E04FF0080808FA0CF8F1
:1008B000A84522D12C4DD5F800C02CEA030CC5F870
:1008C00000C005F1040CDCF800509D43CCF800504A
:1008D0000CF10405D5F800C02CEA030CC5F800C0E3
:1008E0002D1DD5F800C02CEA030CC5F800C0D7F8C0
:1008F000085825EA0A05C7F8085805685700032371
:10090000BB409D430560D50800EB8505D5F820C0A8
:1009100057074FEAD76809FA08F700E00CE02CEA1D
:10092000070CC5F820C0C5689D43C5604568A54350
:10093000456084689C438460521C102AFFF46AAFAF
:10094000BDE8F08F0030014000000240000402408A
:1009500000080240000C0240001002400014024057
:1009600000180240001C0240003C01402DE9F84FF5
:10097000DFF8BCA1002201250AF1040B03264FF089
:100980000F090BF1040E00BF0B6805FA02F42340B7
:10099000A34270D10F7907F00307012F01D0022F76
:1009A00016D187684FEA420806FA08FC27EA0C07C6
:1009B000D1F80CC00CFA08FC4CEA070CC0F808C0CF
:1009C0004768A7430C79C4F3001494403C43446047
:1009D0000C79E443A4070AD0C4684FEA420C06FA33
:1009E0000CF7BC438F6807FA0CF72743C7600C79F4
:1009F00004F00304022C12D1D40800EB840CDCF8C0
:100A000020405707FF0E09FA07F824EA0804D1F836
:100A1000108008FA07F848EA0408CCF82080046837
:100A20004FEA420C06FA0CF7BC430F7907F00307B4
:100A300007FA0CF7274307604C6814F4403F70D066
:100A40003C4C276847F480472760246822F003075E
:100A500004F480440094384C07EB040CDCF808489C
:100A600097074FEA177809FA08F7BC43334FB842A3
:100A700002D1002724E054E0314FB84201D10127D0
:100A80001EE0304FB84201D1022719E02E4FB84284
:100A900001D1032714E02D4FB84201D104270FE004
:100AA0002B4FB84201D105270AE02A4FB84201D1A5
:100AB000062705E0284FB84201D1072700E00827A4
:100AC00007FA08F72743CCF80878DAF800405746C9
:100AD000D1F804C09C435FEACC3C00D51C433C6089
:100AE000DBF800405F46D1F804C09C435FEA8C3CD1
:100AF00000D51C433C60DEF800407746D1F804C0C6
:100B00009C435FEACC2C00D51C433C60084F0C375B
:100B10003C68D1F804C09C435FEA8C2C00D51C4390
:100B20003C60521C102AFFF42FAFBDE8F88F000084
:100B3000003C0140443802400030014000000240C7
:100B40000004024000080240000C02400010024075
:100B50000014024000180240001C024000690840D6
:100B600000D001207047426921EA02030A4043EAAB
:100B70000241816170470AB1816170470904FBE756
:100B8000014880687047000010000020024881681A
:100B90000278114481607047100000200B4810B5A6
:100BA000016841F400710160016841F480610160F5
:100BB000016841F480710160032000F09DF80F206E
:100BC00000F006F800F03EF8002010BD003C0240A6
:100BD00010B5014688B00022372000F06DF83720AC
:100BE00000F05DF813480024016841F02001016025
:100BF000006805A900F020000690684600F0C2F9E0
:100C000000F0E0F90C494000B0FBF1F10C480B4A50
:100C1000491E026040F2E732C0E90324C0E9011432
:100C200000F0D8FB10B1012008B010BD044800F05E
:100C3000FFFBF9E74038024040420F00001400403B
:100C4000240400200C4882B0016841F48041016016
:100C5000006800F4804000900748001F016841F0E0
:100C6000805101600068002200F0805000900F2148
:100C7000901E02B000F020B84438024000280DDB7E
:100C800000F01F02012191404009800000F1E020A6
:100C9000C0F88011BFF34F8FBFF36F8F70470028EC
:100CA00009DB00F01F02012191404009800000F1A2
:100CB000E020C0F800117047F0B40E4B1B680C46E2
:100CC000C3F30223C3F10705042D00D90425191D20
:100CD000072901D2002300E0DB1E012606FA05F1F8
:100CE000491E214099409E40761E16403143F0BC7B
:100CF00001F072BA0CED00E0064900F00702086846
:100D00004FF6FF03184040EA0220034A10430860F0
:100D1000704700000CED00E00000FA052DE9F047F7
:100D20000E46050065D0DFF81481D8F80000F7B250
:100D300000F00700B04207D288F80070D8F8000031
:100D400000F00700B04254D128683D4C810712D50D
:100D5000400703D5206840F4E05020602878000761
:100D600003D5206840F4604020602068A96820F026
:100D7000F000084320602878C0072DD0304968680B
:100D80000839012812D0022813D0032811D009688D
:100D9000890700292DDA216821F003010143216030
:100DA000FFF7EEFE814641F2883A0EE009688903BA
:100DB000EFE709688901ECE7FFF7E2FEA0EB090124
:100DC000514502D90320BDE8F0872068696800F02A
:100DD0000C00B0EB810FEFD1D8F80010404601F0C5
:100DE0000701B14207D90770006800F00700B04260
:100DF00001D00120E7E72878400705D52068E96899
:100E000020F4E050084320602878000706D52068C9
:100E1000296920F4604040EAC100206000F0F2F847
:100E20002168084AC1F30311515CC84006490860B3
:100E300006480068FFF7CCFE0020C4E7003C0240F3
:100E400008380240103300081C0000201400002065
:100E50002DE9F041FFF794FE444C0546206840F030
:100E60000100206005E000BFFFF78AFE401B02285A
:100E700047D820688007F7D5206840F080002060C0
:100E8000FFF77EFE0546394E00200836306041F2FD
:100E9000883704E0FFF774FE401BB84231D8306851
:100EA00010F00C0FF6D1FFF76BFE0546206820F41A
:100EB0005020206005E000BFFFF762FE401B642861
:100EC0001FD820688003F7D4FFF75AFE0546206834
:100ED00020F08070206004E0FFF752FE401B0228E3
:100EE0000FD820688001F7D4FFF74AFE0546206836
:100EF00020F08060206007E0FFF742FE401B0228E0
:100F000002D90320BDE8F08120680001F4D417491C
:100F10001748091D086015491648843108601348B0
:100F20000C30016821F4F8510160016821F400518E
:100F30000160016841F41F010160016841F4001182
:100F400001600A487430016821F001010160016804
:100F500041F080710160094907480860084800684D
:100F6000FFF736FE0028CDD00120CBE70038024045
:100F700010300004003000200024F4001C00002089
:100F8000140000200F2202600C4A136803F00303D0
:100F90004360136803F0F0038360136803F4E053C5
:100FA000C36012684FF4E05303EAD20202610448BE
:100FB000006800F007000860704700000838024031
:100FC000003C02400448054900680968044AC1F32E
:100FD0008221515CC84070471C0000200838024044
:100FE000203300080448054900680968044AC1F331
:100FF0004231515CC84070471C0000200838024054
:1010000020330008154810B5006810F00C02144891
:1010100013D04110042A0FD0082A0ED10F4C241FE0
:101020002268236802F03F025B0207D52068C0F304
:101030008810A0FB010106E0084610BD2168C1F33D
:101040008811A1FB00010023FFF71CF92168C1F3FF
:101050000141491C4900B0FBF1F010BD08380240C5
:101060000024F4002DE9F84F04006ED02078DFF85A
:101070004C93C007A9F104054AD009F104000168A6
:10108000C1F38101012908D00068C0F38100022862
:101090000AD1D9F80000400206D52868800337D568
:1010A00060680028E1D033E06068B0F5803F10D080
:1010B000B0F5A02F286810D020F480302860286870
:1010C00020F4802028606068A8B1FFF759FD06462B
:1010D0000DE0286840F48030F4E740F48020286078
:1010E000F7E700BFFFF74CFD801B642873D8286822
:1010F0008003F7D50CE0FFF743FD064605E000BF8F
:10110000FFF73EFD801B6428F0D828688003F7D4E1
:101110002078DFF8AC8280074FF0000A3ED5A74860
:10112000001D016811F00C0F08D00068C0F38100A9
:1011300002280BD1D9F80000400207D428688007A4
:1011400016D5E068012800D112E033E1E068B8B1BB
:101150000120C8F80000FFF713FD064605E000BFB8
:10116000FFF70EFD801B0228C0D828688007F7D53E
:101170002868216920F0F80040EAC10028600DE0ED
:10118000C8F800A0FFF7FCFC064604E0FFF7F8FCF7
:10119000801B02281FD828688007F7D42078000712
:1011A00022D5864F87486169703771B1012101608E
:1011B000FFF7E6FC064604E0FFF7E2FC801B02288E
:1011C00009D838688007F7D50EE0C0F800A0FFF70F
:1011D000D7FC064605E082E0FFF7D2FC801B022820
:1011E0007DD838688007F7D42078400768D5DFF8C5
:1011F000CCB100270BF13C0BDBF80000C0000BD496
:10120000DBF8001041F08051CBF80010DBF8000053
:10121000012700F0805000906B4E3068C00510D45C
:10122000306840F480703060FFF7AAFC009005E061
:10123000FFF7A6FC0099401A022850D83068C00574
:10124000F6D55E4EA0686C3601280FD005283068B0
:1012500010D020F001003060306820F004003060D1
:10126000A068B8B1FFF78CFC00900FE0306840F048
:101270000100F4E740F004003060F7E7FFF780FC7E
:101280000099411A41F28830814266D8306880075F
:10129000F4D50EE0FFF774FC009007E0FFF770FC58
:1012A0000099411A41F28830814256D8306880074F
:1012B000F4D42FB1DBF8001021F08051CBF80010EE
:1012C000A069C8B33D49091D0968C1F3810102291C
:1012D0004AD00228504607D0C8F8600000E03CE041
:1012E000FFF74EFC04463BE04746C8F86000FFF7B6
:1012F00047FC064605E000BFFFF742FC801B0228C2
:101300002BD828688001F7D4D4E907010843A16AE3
:101310002E4A490802EB0141626A41EA8211084300
:1013200094F82C1040EA0161C9F8001001203866D9
:10133000FFF726FC044606E03EE000BFFFF720FC76
:10134000001B022809D828688001F7D534E000BFC7
:10135000FFF716FC001B022802D90320BDE8F88F16
:1013600028688001F4D427E00128F7D0D9F80000DC
:10137000E26900F4800191421CD1226A00F03F0131
:10138000914217D147F6C071626A0140B1EB821FEA
:1013900010D1A26A4FF0FF3300F4403103EB520248
:1013A000B1EB024F06D194F82C1000F07060B0EB56
:1013B000016F01D00120D1E70020CFE704380240BF
:1013C00000004742800E4742007000400000FFFFCF
:1013D0007047704710B5040003D094F83D0010B179
:1013E00007E0012010BD002084F83C00204600F0FA
:1013F0001EF8022084F83D00211D206800F01EFD2B
:10140000012084F8460084F83E0084F83F0084F808
:10141000400084F8410084F8420084F8430084F8D6
:10142000440084F8450084F83D00002010BD70475A
:1014300090F83D10012901D001207047022180F869
:101440003D100168CA6842F00102CA600068114993
:10145000884214D0B0F1804F11D00F4988420ED08D
:101460000E4988420BD00E49884208D00D49884267
:1014700005D00D49884202D00C49884204D18168C8
:1014800001F00701062903D0016841F00101016064
:1014900000207047000001400004004000080040A8
:1014A000000C0040000401400040014000180040D2
:1014B000704770B50446006801694FF00005C943E4
:1014C000890715D4C168C943890711D4E91E016190
:1014D00001202077206880698007204602D0FFF72E
:1014E000E7FF04E000F098F8204600F096F8257732
:1014F00020680169C943490717D4C168C94349072E
:1015000013D46FF004010161022020772068806904
:1015100010F4407F204602D0FFF7CAFF04E000F03D
:101520007BF8204600F079F8257720680169C943E7
:10153000090716D4C168C943090712D46FF008011E
:101540000161042020772068C0698007204602D00E
:10155000FFF7AEFF04E000F05FF8204600F05DF812
:10156000257720680169C943C90617D4C168C943F2
:10157000C90613D46FF0100101610820207720689C
:10158000C06910F4407F204602D0FFF791FF04E0CD
:1015900000F042F8204600F040F825772068016905
:1015A000C943C90708D1C168C943C90704D1891E05
:1015B0000161204600F032F820680169C94309063C
:1015C00009D4C168C943090605D46FF080010161DF
:1015D0002046FFF7FDFE20680169C943490609D48A
:1015E000C168C943490605D46FF040010161204636
:1015F00000F01EF820680169C94389060BD4C16850
:10160000C943890607D46FF0200101612046BDE877
:101610007040FFF7DEBE70BD704770470068034939
:10162000884201D1FFF7B2BA7047000000140040B1
:101630007047704710B5040014D0242084F83D0092
:101640002068C16821F40051C160204600F074F99F
:101650000020206484F83D0084F83E0044F8300FF8
:10166000207310BD012010BD70470000F8B501685F
:1016700004460868CA684B6910F00F0F4FF0000568
:1016800059D003F0010602F49077374365D0C107C3
:1016900005D0D10503D5216C41F00101216441073A
:1016A00005D5D90703D0216C41F0020121648107DF
:1016B00005D5D90703D0216C41F00401216401074D
:1016C00007D502F02001314303D0216C41F008011D
:1016D0002164216C00293AD0800604D5900602D5F9
:1016E000204600F03EFC20684069216CC0F3801069
:1016F000090700D460B3204600F00CFC2068406964
:10170000400621D52068143050E8001F21F0400128
:1017100040E80012002AF5D1A06BA8B16C49016520
:10172000A06BFEF7A0FF002811D0A06B016D01B0E7
:10173000BDE8F040084783060FD593060DD5204637
:10174000BDE8F84000F00DBC2046FFF78DFFF8BD66
:101750002046FFF789FF2564F8BD266B2023012E64
:1017600079D1C60677D5D60675D508684868009041
:101770004869400640D5A16B086840680004000C29
:10178000EAD0A28D8242E7D9E085C869B0F5807FB2
:101790002DD020680C3050E8001F21F4807140E803
:1017A0000012002AF5D12068143050E8001F21F003
:1017B000010140E80012002AF5D12068143050E8F9
:1017C000001F21F0400140E80012002AF5D184F802
:1017D0003E30256320680C3050E8001F21F01001D6
:1017E00040E80012002AF5D1A06BFEF7F3FEA08DB1
:1017F000E18D401A81B229E0A08DE18D401A81B2BD
:10180000E08D0028A8D00029A6D020680C3050E830
:10181000002F22F4907240E80026002EF5D12068B7
:10182000143050E8002F22F0010240E80026002E7C
:10183000F5D184F83E30256320680C3050E8002F45
:1018400022F0100240E80023002BF5D12046FFF7DC
:10185000F0FEF8BDFFE705062BD5150629D594F84F
:101860003D002128F5D1A068B0F5805F01D1206945
:10187000B0B1206A411C2162216800784860E08C88
:10188000401E0004000CE084E3D12068C16821F010
:101890008001C1602068C16841F04001C160D8E7A3
:1018A000206A0088C0F308004860206A801C20621B
:1018B000E5E74006CDD55006CBD5CA68204622F0D4
:1018C0004002CA6084F83D3000F047F9C1E70000EB
:1018D000051F000870B5040004D094F83D000025F1
:1018E00010B106E0012070BD84F83C50204600F0A5
:1018F0003DF8242084F83D002068C16821F400519F
:10190000C160204600F08EFB2068016921F49041FF
:1019100001612068416921F02A0141612068C168A4
:1019200041F40051C1602564202084F83D0084F812
:101930003E00002070BD000010B5006808498842D4
:101940000DD10848016821F020010160C02106483E
:10195000FEF758FFBDE810404720FFF78FB910BDD4
:1019600000140140443802400008024010B586B01F
:10197000044614216846FEF7CFFC174920688842C8
:1019800028D116480021026842F020020260006857
:1019900000F02000059011481438026842F004025B
:1019A0000260006800F004000590C0200090022052
:1019B000CDE90101032003900820049069460848FE
:1019C000FEF7D4FF002205214720FFF775F94720D5
:1019D000FFF765F906B010BD00140140443802401D
:1019E000000802402DE9F84F044690F83E009A4660
:1019F00016460D46202853D1FDB1F6B194F83C00AF
:101A000001284DD0012084F83C00002727642220C3
:101A100084F83E002763FFF7B3F8A6858146E68584
:101A2000A0684FF48058404501D1206940B12E464E
:101A30005FF0000584F83C7027E00120BDE8F88FD6
:101A40000026F7E74B46002220212046CDF800A0D3
:101A500000F06EFB08B10320F0E726B1A068404516
:101A60001BD038B108E020684068C0F3080025F8B2
:101A7000020B07E0206980B12068406800F07F0019
:101A800006F8010BE08D401EE085E08D0028D9D1DD
:101A9000202084F83E000020D0E720684068EFE76F
:101AA0000220CBE7704700002DE9F843044690F888
:101AB0003D001F4616460D4620284CD1C5B1BEB18B
:101AC00094F83C00012846D0012084F83C004FF0F7
:101AD0000008C4F84080212084F83D00FFF750F84A
:101AE000A6848146E684A068B0F5805F03D004E058
:101AF0000120BDE8F883206928B12E465FF000057B
:101B000084F83C800EE00026FAE78021204600F0B1
:101B10000FFBA0B9AEB116F8010B21684860E08C4C
:101B2000401EE084E08C4B464FF0000200970028F6
:101B3000EBD14FF04001204600F0FAFA30B103201B
:101B4000D7E735F8020BC0F30800E6E7202084F859
:101B50003D000020CDE70220CBE77047FEE7000004
:101B600010B596B01C2211496846FEF7BCFB002157
:101B7000684600F05BFE0E4C0C491C2220601C31B4
:101B800007A8FEF7B0FB002107A800F04FFE0749A9
:101B900060601C2238310EA8FEF7A5FB00210EA8BC
:101BA00000F044FEA06016B010BD0000BC3200087A
:101BB000040000202DE9F04786B014216846FEF7A6
:101BC000ABFB38484FF0000A016841F0800101602A
:101BD000016801F080010591016841F01001016088
:101BE000016801F010010591016841F002010160F6
:101BF000016801F002010591016841F004010160F2
:101C0000016801F004010591016841F001010160E2
:101C1000016801F001010591016841F008010160CE
:101C20000068214F00F008004FF440640590012245
:101C300021463846FEF79FFFDFF870803E150022F0
:101C400031464046FEF797FFDFF8649001220321FA
:101C50004846FEF790FF0094012402256946384665
:101C60000194CDE90245FEF781FE0096CDE90145DC
:101C7000694640460395FEF779FEE002CDE9000A89
:101C8000694602944046FEF771FE0320CDE9000448
:101C900069464846CDE90245FEF768FE06B0BDE854
:101CA000F08700003038024000100240000402407B
:101CB000000C02400C4810B50A4901604FF4E131B4
:101CC0004160002181600C22C160C0E90412816181
:101CD000C161FFF7FFFD002803D0BDE81040FEF70B
:101CE0006BBB10BD00140140E0030020FEE7FEE7DF
:101CF00070B50D4D4FF4006421462846FEF72EFFC7
:101D0000002810D13220FEF7C1FC21462846FEF7FC
:101D100025FF0028F9D02846BDE8704000224FF486
:101D20008061FEF728BF70BD00040240642000F00F
:101D300071FDFBE7074C4FF4FA7502212046FEF7D0
:101D400012FF01212046FEF70EFF284600F062FD3B
:101D5000F3E70000000C0240FFF7CAFF142000F078
:101D600059FDF9E710B5502080F31188BFF34F8F6C
:101D7000BFF36F8F01F0DAF918B104494FF08050CA
:101D80000860002080F3118810BD000004ED00E021
:101D900030B593B030216846FEF7BEFA14210CA886
:101DA000FEF7BAFA1C480025016841F08051016035
:101DB000006800F0805011901848016841F480419B
:101DC00001600068022400F480401190012000901E
:101DD000000401908001CDE9064008AA04204821B2
:101DE00082E813000B906846FFF73CF908B172B621
:101DF000FEE70CA90F2081E831004FF48050CDE9B7
:101E00000F0502210CA8FEF789FF002801D072B649
:101E1000FEE713B030BD00004038024000700040C3
:101E20000248016841F470010160704788ED00E0EC
:101E30000148FFF73EBB000024040020F0B5026813
:101E4000254C264D264E274F274B4FF0804CA04265
:101E500009D0604507D0A84205D0B04203D0B842AF
:101E600001D0984204D122F0700E4A6842EA0E0274
:101E7000A0421BD0604519D0A84217D0B04215D05F
:101E8000B84213D0984211D0184DA8420ED0184D28
:101E9000A8420BD0174DA84208D0174DA84205D034
:101EA000164DA84202D0164DA84203D122F4407527
:101EB000CA682A434D6922F080022A4302608A6878
:101EC000C2620A688262A04201D0984201D10969C7
:101ED000016301214161F0BD0000014000040040A8
:101EE00000080040000C0040000401400040014098
:101EF000004401400048014000180040001C004020
:101F00000020004010B5806B0021C185C184FFF71F
:101F1000ABFB10BD01680C3151E8002F22F4907228
:101F200041E80023002BF5D10168143151E8002F5E
:101F300022F0010241E80023002BF5D1016B0129B9
:101F400009D101680C3151E8002F22F0100241E85C
:101F50000023002BF5D1202180F83E1000210163E1
:101F6000704708B590F83E10222901D0022008BD24
:101F700082684FF480539A4201D1016921B1816A8C
:101F80009A421BD04AB10AE00268816A5268C2F3E1
:101F900008020A80816A891C08E0026972B102683D
:101FA000526802F07F020A70816A491C8162C18D09
:101FB000491E0904090CC18503D019E00268526862
:101FC000F1E70168CA6822F02002CA600168CA68A5
:101FD00022F48072CA6001684A6922F001024A61F3
:101FE000202180F83E10016B012903D0FFF75AFD34
:101FF000002008BD0021016301680C3151E8002F69
:1020000022F0100241E80023002BF5D101680A6894
:10201000D20602D50A6849680091818DFFF709FB55
:10202000E6E7000070B5044600680169E26821F443
:102030004051114301612169A068E2690843616967
:10204000114308432168CA6849F20C639A4302436A
:10205000CA6020684169A26921F44071114341615D
:1020600031492068884202D03049884202D1FEF7C7
:10207000B9FF01E0FEF7A6FFE269002319216425FC
:102080003226B2F5004F626828D0A0FB0101930F01
:102090009200FEF7F7F80146B0FBF5F06FF018027A
:1020A000504301EB800006EB0010B0FBF5F000F0B0
:1020B000F002B1FBF5F002EB0012B1FBF5F06FF0AE
:1020C0001803584301EB800006EB0010B0FBF5F05D
:1020D00000F00F0021681044886070BDA0FB010172
:1020E00092185B41FEF7CEF80146B0FBF5F0020115
:1020F000B1FBF5F06FF01803584301EB800006EBDD
:10210000C000B0FBF5F000F0F80002EB4002B1FBBC
:10211000F5F0584301EB800006EBC000B0FBF5F092
:1021200000F00700D6E70000001001400014014055
:102130002DE9F041984617460E460446069D27E0D5
:10214000681C25D02DB1FEF71BFDA0EB0800A842AE
:102150001ED920680C3050E8001F21F4D07140E8EF
:102160000012002AF5D12068143050E8001F21F039
:10217000010140E80012002AF5D1202084F83D003A
:1021800084F83E00002084F83C000320BDE8F08184
:102190002068006836EA000004D00020B842CFD0A2
:1021A0000020F3E70120F9E70148FFF75FBA0000DC
:1021B000E0030020FEE700000FB4054B10B503A9B3
:1021C000044A029800F028F810BC5DF814FB0000E7
:1021D000D9240008880000200907090E002804DB24
:1021E00000F1E02080F80014704700F00F0000F1CB
:1021F000E02080F8141D704702E008C8121F08C1D3
:10220000002AFAD170477047002001E001C1121F77
:10221000002AFBD1704700002DE9FF4F8DB09B468F
:102220000F460446002606E025280BD05A460F9993
:102230009047641C761C20780028F5D111B03046F8
:10224000BDE8F08F0025A8460122984900E005432B
:1022500014F8013F203B02FA03F00842F7D120783E
:102260002E2817D114F8010F45F004052A280ED0A6
:102270006FF02F022078A0F1300109290AD808EB6D
:10228000880102EB410100EB0108641CF2E757F8FA
:10229000048B641C20786C280DD004DC4C2812D0F0
:1022A0006A2811D104E074280DD07A280CD10AE0F4
:1022B00045F4001507E0617845F48015814202D1AC
:1022C000641C05F58015641C2078692844D008DC5E
:1022D0000028B3D0582867D063280FD0642808D1CD
:1022E0003AE0702865D0732812D075285AD0782823
:1022F0005AD05A460F999047761CD5E017F8040B30
:102300008DF8000000208DF80100E946012003E06F
:1023100057F8049B4FF0FF3069074FF0000501D4D8
:102320000AE06D1C45450DDA8542FADB19F8051007
:102330000029F6D106E06D1C8542FCDB19F805107A
:102340000029F8D12E4404E019F8010B5A460F99E0
:1023500090476D1EF8D2A7E00A200021CDE90801C0
:10236000C5F3025002280CD001CFC117021E71F133
:1023700000020CDA0023D0EB030063EB01012D22F5
:1023800008E0FF1D27F00707F7E80201EEE72A053E
:1023900004D52B228DF8282001223CE0EA073AD010
:1023A0002022F7E70A2000E010200021CDE90801F3
:1023B00007E01020002145F00405CDE908014FF0A9
:1023C0000808C5F30250022810D001CF00214FF0B9
:1023D000000A2A0720D52278702A0DD0DDE908C32B
:1023E0008CF0100C5CEA030C0CD015E0FF1D27F0FC
:1023F0000707F7E80201EAE740228DF828204FF0AE
:10240000010A0CE050EA010306D030238DF8283091
:102410008DF82920022292462278582A04D024A23C
:102420000DF120090B9209E026A2F9E7DDE9082366
:10243000FDF728FF0B9B9B5C09F8013D50EA010268
:10244000F4D1ADEB090020300890680701D44FF0BB
:1024500001080899884503DD0898A8EB000000E012
:1024600000208046002506E00AA85A46405D0F99E4
:1024700090476D1C761C5545F6DB04E030205A462B
:102480000F999047761CB8F10001A8F10108F5DC1E
:1024900005E019F8010B5A460F999047761C0899E8
:1024A000481E08900029F4DC641CC4E609280100D9
:1024B00030313233343536373839616263646566BA
:1024C000000000003031323334353637383941427C
:1024D000434445460000000013B54FF6FF73012248
:1024E00069460248FFF7E0FA00981CBDE0030020AF
:1024F00086B0FEF753FBFFF74BFCFFF75BFBFFF7E4
:10250000D9FB012291026C48FEF735FB6BA0FFF767
:1025100053FE6E48FFF750FE4FF4FA70FEF7B6F820
:1025200000246B4E4FF47A77A1464FF480753B46FA
:102530002A4668496848FFF755FA68A16548FDF7DB
:10254000F6FE002823D0634967A0FFF735FE67A099
:10255000FFF732FE4C46CDF80090FEF73DF90194AE
:1025600001240220CDE903400590694601A8FEF749
:102570009FF828B1FEF7E8F864A00099FFF71CFE69
:10258000FEF7E2F8347067A0FFF716FE03E0641C64
:10259000E4B20A2CCBD33078DFF894B1B2460128EC
:1025A00002D000284DD059E0002762A0FFF704FEBA
:1025B0005C4647F230534FF4807246494648FFF775
:1025C00011FA032801D010B148E065A044E0414E63
:1025D000DFF8B081FEF700F95FF00005444556F8DA
:1025E00025200CD2002321460220FEF7B7F8002850
:1025F00039D0FEF7A9F8214663A0FFF7DDFD6D1C79
:10260000EDB2402DEAD3FEF79FF83A46781CC7B2E8
:10261000214663A0FFF7D0FD4FF4FA634FF48072B8
:102620002C492D48FFF7DEF90328D3D19AF8011081
:10263000491CC9B28AF801100229CBD160A0FFF76A
:10264000BBFD63A0FFF7B8FD664ADBF80010114040
:10265000B1F1005F09D064A0FFF7AEFDFFF780FA8B
:1026600000F0DFF8FEE7241DC9E74FF0E021CDF8C8
:1026700000B00024C1F81090C1F81490C1F818906F
:10268000FEF7E6FB1448FEF7D5FF611EA00000F13F
:10269000E020C0F88011C0F88012641C082CF5D32B
:1026A000009811C880F30888002080F3148852A095
:1026B000FFF782FDA047D1E700040240626F6F740C
:1026C0002073746172740D0A000000002833000842
:1026D000000000208C000020E003002065726120D3
:1026E000666C61736800000025730000D7BCB1B848
:1026F000B2C1B3FDD0BEC6ACB5C4C4DAB2BF666C5D
:10270000617368D6D0A1A3A1A3A1A3004572617390
:1027100065206661696C2061743A307825780A0D0D
:10272000000000004572617365204F4B0A0D0000E8
:1027300000500008726561647920746F20726563CF
:10274000656976652062696E2C20706C65617365C1
:102750002073656E6420696E203330730A0D0000AB
:1027600074696D65206F75742C20656E64207761C7
:10277000697420746F20726563656976652062698B
:102780006E0A0D0000C000087772697465206661EA
:10279000696C2061743A20307825780A0D000000B9
:1027A0007772697465203235362062747965204FFE
:1027B0004B3A20307825780925640A0D0000000086
:1027C000456E64207772697465204F4B0A0D0000D6
:1027D00073746172742075736572206170700A0D74
:1027E000000000000000FE2F6E6F207573657220E0
:1027F0006170700D0A000000D7BCB1B8CCF8D7AA40
:102800004150500D0A00000001460020842900D0EC
:10281000C81C704710B500B9012000F023FB002050
:1028200010BD10B500F044FB002010BD7FB50D4673
:1028300004464169B0F9080081B1A16971B1FFF79F
:10284000E3FFD4E905128DE80700D4E900102B4618
:10285000226900F040FC039004B070BDFFF7D4FF84
:1028600003A9CDE90001208A2B4682B2D4E90010E9
:1028700000F004FC012801D00020EDE70398EBE70D
:102880002DE9F041184C0F460546E6682068001D0A
:1028900000F020FA38B9206890F82C100120884008
:1028A000216981432161681C07D137B12168BDE8E6
:1028B000F0410E48091D00F051BA20683544B54278
:1028C0004560216805D2A06BBDE8F041091D00F00C
:1028D0002DBA606B091D00F029FAA06A854200D26A
:1028E000A562BDE8F08100002000002068050020FE
:1028F0002DE9F041054600F03DFA2E4CA068401C41
:10290000A06020682C4F10B1606940B32DE02560B5
:10291000A068012829D1002606EB860007EB80007D
:1029200000F0F6F9761C072EF6D323488C3000F021
:10293000EFF92148A03000F0EBF91F48B43000F067
:10294000E7F91D48C83000F0E3F91B48DC3000F01F
:10295000DFF919488C3060631430A06305E020680B
:10296000E96AC06A884200D82560606A401C6062DB
:10297000E96A0120226988401043206101EB81004F
:1029800007EB8000291D00F0E9F900F013FA6069F7
:1029900000280CD02068E96AC06A884207D207493B
:1029A0004FF080500860BFF34F8FBFF36F8FBDE8CB
:1029B000F0810000200000208C04002004ED00E0E5
:1029C00010B5044690F8510058B101280CD00228E7
:1029D0000FD0502080F31188BFF34F8FBFF36F8F5C
:1029E000FEE7206B00F0FAF92046BDE8104000F049
:1029F000F5B910BD10484FF47051420706D0C01D04
:102A00000D4920F00700411AC1F570510B4A00230F
:102A10000144C2E900030839183A21F007011160A6
:102A20004B600B600B1AC0E9001393604FF000403D
:102A300053605061704700007C0500207400002046
:102A4000144E154CA6F1C8074FF08058DFF84C9093
:102A500012E000BF00F08EF9F068C568281D00F094
:102A600039F9A068401EA0606068401E606000F0F8
:102A7000A1F92846FFF7A4FF60680028EAD138686A
:102A80000128F9D9C9F80080BFF34F8FBFF36F8FCA
:102A9000F2E70000540500202000002004ED00E0D3
:102AA0002DE9F0479A46DDE9098481466FF003037A
:102AB000206B03EB82021044089E20F00707780782
:102AC00007D0502080F31188BFF34F8FBFF36F8F73
:102AD000FEE7002561B1002023180A5C83F834204A
:102AE0000A5C12B1401C1028F6D384F8435001E070
:102AF00084F83450072E00D30626E662C4E9116537
:102B0000201D00F010F904F1180000F00CF9246108
:102B1000C6F107006462A061E56484F85050524633
:102B20004946384600F0C0F82060B8F1000F01D0E7
:102B3000C8F80040BDE8F08730B5114900E0114603
:102B40000A688242FBD34B685C18844203D1406818
:102B500018444860084643681C18944209D1084C40
:102B6000183C2468A24209D052681A4442600A689C
:102B700012680260814200D0086030BD0460F9E74D
:102B8000740000200648416B096829B1416BC9688F
:102B9000C9684968816270474FF0FF31FAE7000069
:102BA0002000002008484068401C4FF0500080F38F
:102BB000118804D0BFF34F8FBFF36F8FFEE7BFF3D1
:102BC0004F8FBFF36F8FFEE77C0000202DE9F041AF
:102BD0000546002700F0A2F9324E306808B9FFF729
:102BE00009FF706905424ED1C5B3083568070ED09C
:102BF00005F00700C0F108000544680707D0502021
:102C000080F31188BFF34F8FBFF36F8FFEE72DB3B3
:102C10007068854237D82348183001460C6801E0B7
:102C200020460C466168A94202D221680029F7D1EA
:102C300031688C4227D007682168016060680837D6
:102C4000411B10290FD96019420708D0502080F38A
:102C50001188BFF34F8FBFF36F8FFEE713E0416022
:102C60006560FFF769FF61687068401A7060B2685C
:102C7000904200D2B060706901430020C4E90001B5
:102C8000F068401CF06000F0B7FA780707D05020D9
:102C900080F31188BFF34F8FBFF36F8FFEE7384685
:102CA000BDE8F0815C00002010B5031F4FF0807478
:102CB0001C601B1F21F001011960191F044B0B60E0
:102CC00014390A60091F6FF0020244380A6010BD0F
:102CD000A52B0008D0E9013201699A60D0E90123EF
:102CE0005A604A68824201D182684A6000220261C9
:102CF0000868401E0860086870470000034B0360C6
:102D000003F1540008608020106070478C0100209F
:102D100000F108014FF0FF32C0E90112C16001610A
:102D200000210160704700210161704730B50B68D8
:102D30005A1C02D000F1080202E0026904E02246B7
:102D4000546825689D42FAD953684B6099608A603F
:102D5000516008610168491C016030BD42684A60E9
:102D600093688B6093685960916008610168491CA1
:102D700001607047502080F31188BFF34F8FBFF37D
:102D80006F8F0A494868401C486001280CD10848E8
:102D9000006810F0FF0F07D0502080F31188BFF3B8
:102DA0004F8FBFF36F8FFEE7704700007C0000205D
:102DB00004ED00E00849486828B1401E486001D190
:102DC00080F311887047502080F31188BFF34F8F34
:102DD000BFF36F8FFEE700007C00002070B5002875
:102DE0002AD0164DA0F1080460686969084207D12D
:102DF000502080F31188BFF34F8FBFF36F8FFEE732
:102E000022683AB1502080F31188BFF34F8FBFF38F
:102E10006F8FFEE78843606000F080F86068696843
:102E2000084468602046FFF787FE2869401C286137
:102E3000BDE8704000F0E0B970BD00005C0000200B
:102E40004FF0E02000210161816105494FF47A7261
:102E50000968B1FBF2F1491E416107210161704728
:102E60001C00002010B5020014D00F48006B38B1D0
:102E7000502080F31188BFF34F8FBFF36F8FFEE7B1
:102E800000F04CF800211046FFF7FAFC00F0B4F90E
:102E9000002807D105494FF080500860BFF34F8FDD
:102EA000BFF36F8F10BD00002000002004ED00E094
:102EB00010B586B00024039405AA04A903A80494BD
:102EC000FFF71CFFDDE903010094CDE901100023A9
:102ED0000EA11048059A00F0FEF80F490028C862BC
:102EE00011D0502080F31188BFF34F8FBFF36F8F45
:102EF0004FF0FF30886201204861CC6006B0BDE829
:102F0000104000F041B806B010BD000049444C45E7
:102F100000000000412A0008200000200248016B48
:102F2000491C016370470000200000201448016B19
:102F300011B10121C16170470021C1610169B1FA7C
:102F400081F1C1F11F0101EB81020E4951F82230DC
:102F50006BB101EB820101F108034A6852684A60D3
:102F60009A4201D152684A60D1680160704750208E
:102F700080F31188BFF34F8FBFF36F8FFEE7000020
:102F8000200000208C0400201CB537480168374A17
:102F9000914207D1502080F31188BFF34F8FBFF3C8
:102FA0006F8FFEE700683149491E884207D15020E3
:102FB00080F31188BFF34F8FBFF36F8FFEE72C496B
:102FC00008780190FF20087008788DF800009DF8BF
:102FD00000009DF8002000F0F000904207D0502043
:102FE00080F31188BFF34F8FBFF36F8FFEE79DF81B
:102FF0000000204C00F0500020700720A06005E089
:103000009DF8002052008DF80020401E9DF8002001
:103010001206F5D4A060032807D0502080F3118851
:10302000BFF34F8FBFF36F8FFEE74FF44070A06088
:10303000019808700C482030016841F4700101606B
:10304000016841F070410160FFF7FAFE0020606006
:10305000FDF7CAF80848016841F040410160FDF7FA
:10306000AFF800201CBD000000ED00E071C20F4170
:1030700000E400E07C00002034EF00E02DE9FF5F79
:103080008346DDE90E87994616468A469000FFF78B
:103090009DFD05001CD05420FFF798FD040014D0BE
:1030A0000020256384F85100CDE90240CDE9008776
:1030B0004B46324651465846FFF7F2FC2046FFF792
:1030C00017FC012004B0BDE8F09F2846FFF786FEFC
:1030D0004FF0FF30F6E7F0B585B0DDE90B640A9DEF
:1030E000A6B1DCB1542700972663022684F851600C
:1030F000002604AFCDE90246CDE90057FFF7D0FC2A
:103100002046FFF7F5FB049805B0F0BD502080F392
:103110001188BFF34F8FBFF36F8FFEE7502080F30E
:103120001188BFF34F8FBFF36F8FFEE72DE9F0419A
:103130002F4C0026206B28B1A069401CA0613046AE
:10314000BDE8F081E5686D1CE56013D1606B006837
:1031500038B1502080F31188BFF34F8FBFF36F8FCA
:10316000FEE7606BA16B6163A063206A401C206274
:10317000FFF708FDA06ADFF87C80854209D3606B09
:103180000068A0B1606BC068C7687868854211D2DA
:10319000A0622068C06A00EB800158F82100012875
:1031A00000D90126E0690028C9D00126C7E74FF001
:1031B000FF30EDE7381DFFF78DFDB86A18B107F154
:1031C0001800FFF787FDF96A012022698840104343
:1031D000206101EB810108EB8100391DFFF7BEFD85
:1031E000F86A2168C96A8842C9D30126C7E7000086
:1031F000200000208C0400202DE9F0472C4D0024F5
:103200002746286B38B1FFF7B5FD286B401E2863B1
:10321000286B40B146E0502080F31188BFF34F8FF8
:10322000BFF36F8FFEE7A968224E0120D1B3A6F14C
:10323000B40980463068E8B1F068C46804F1180049
:10324000FFF748FD201DFFF745FDE06A2A6908FAEF
:1032500000F11143296100EB800109EB8100211D80
:10326000FFF77CFDE06A2968C96A8842E2D3C5F8A5
:103270001C80DFE70CB1FFF785FCAC6944B1464622
:10328000FFF754FF00B1EE61641EF9D10020A86180
:10329000E86938B10849012738070860BFF34F8F44
:1032A000BFF36F8FFFF786FD3846BDE8F08700005B
:1032B000200000204005002004ED00E074330008E9
:1032C000351D0008FDFF0000000000008000000028
:1032D000000000000000000080330008591D0008B5
:1032E000000000000000000080000000000000005E
:1032F000000000008C3300082D1D0008FFFF0000B7
:10330000000000008000000000000000000000003D
:103310000000000000000000010203040607080985
:103320000000000001020304696E707574202265BC
:10333000726120666C6173682220746F206572610F
:1033400073757265207573657220666C6173682C85
:10335000206F7220776169742031307320746F2080
:1033600073746172742075736572206170700D0AD8
:10337000000000004C45445F5461736B0000000086
:103380005057525F5461736B00000000424F4F541E
:103390005F5461736B000000B83300080000002028
:1033A0008C000000F8210008443400088C00002044
:1033B000F4440000082200080000000000000000A3
:1033C00000000000000000000100000010000000EC
:1033D000000000000024F4000000000000000000D5
:1033E00000000000000000000000000000000000DD
:1033F00000000000000000000000000000000000CD
:1034000000000000000000000000000000000000BC
:1034100000000000000000000000000000000000AC
:10342000000000000000000000000000000000009C
:103430000000000000000000AAAAAAAA00000000E4
:043440000000000088
:040000050800018965
:00000001FF
